{
  "transactions": [
    {
      "hash": "0x4cea25e7f069ad3da6c5ec8fc6bf8aa3fd9c5dd28545dc47dbc74f9d65f06a71",
      "transactionType": "CALL",
      "contractName": null,
      "contractAddress": "0x779877a7b0d9e8603169ddbd7836e478b4624789",
      "function": "approve(address,uint256)",
      "arguments": [
        "0x0BF3dE8c5D3e8A2B34D2BEeB17ABfCeBaf363A59",
        "36716453005787113"
      ],
      "transaction": {
        "from": "0x46cc7764cb6a33c286c5264396ce5300292f6cdc",
        "to": "0x779877a7b0d9e8603169ddbd7836e478b4624789",
        "gas": "0x1081f",
        "value": "0x0",
        "input": "0x095ea7b30000000000000000000000000bf3de8c5d3e8a2b34d2beeb17abfcebaf363a590000000000000000000000000000000000000000000000000082716b62d27fe9",
        "nonce": "0x32",
        "chainId": "0xaa36a7"
      },
      "additionalContracts": [],
      "isFixedGasLimit": false
    },
    {
      "hash": "0xdf9c9acde2f63358ea6212234de88dc0797c41b51a1a567d568b875910cfb7f4",
      "transactionType": "CALL",
      "contractName": null,
      "contractAddress": "0xee98ef41489d547d3f107277b149f4d30d7b1f1c",
      "function": "approve(address,uint256)",
      "arguments": [
        "0x0BF3dE8c5D3e8A2B34D2BEeB17ABfCeBaf363A59",
        "2000000000000000"
      ],
      "transaction": {
        "from": "0x46cc7764cb6a33c286c5264396ce5300292f6cdc",
        "to": "0xee98ef41489d547d3f107277b149f4d30d7b1f1c",
        "gas": "0x11578",
        "value": "0x0",
        "input": "0x095ea7b30000000000000000000000000bf3de8c5d3e8a2b34d2beeb17abfcebaf363a5900000000000000000000000000000000000000000000000000071afd498d0000",
        "nonce": "0x33",
        "chainId": "0xaa36a7"
      },
      "additionalContracts": [],
      "isFixedGasLimit": false
    },
    {
      "hash": "0x517fbe1f91a1985cbba04024c96d5faaf49facbdaf9e048241b05b720f8d047a",
      "transactionType": "CALL",
      "contractName": null,
      "contractAddress": "0x0bf3de8c5d3e8a2b34d2beeb17abfcebaf363a59",
      "function": "ccipSend(uint64,(bytes,bytes,(address,uint256)[],address,bytes))",
      "arguments": [
        "3478487238524512106",
        "(0x00000000000000000000000046cc7764cb6a33c286c5264396ce5300292f6cdc, 0x, [(0xEE98eF41489D547D3F107277b149F4d30d7B1F1C, 2000000000000000)], 0x779877A7B0D9E8603169DdbD7836e478b4624789, 0x181dcf10000000000000000000000000000000000000000000000000000000000003d0900000000000000000000000000000000000000000000000000000000000000001)"
      ],
      "transaction": {
        "from": "0x46cc7764cb6a33c286c5264396ce5300292f6cdc",
        "to": "0x0bf3de8c5d3e8a2b34d2beeb17abfcebaf363a59",
        "gas": "0x66ab7",
        "value": "0x0",
        "input": "0x96f4e9f9000000000000000000000000000000000000000000000000304611b6affba76a000000000000000000000000000000000000000000000000000000000000004000000000000000000000000000000000000000000000000000000000000000a000000000000000000000000000000000000000000000000000000000000000e00000000000000000000000000000000000000000000000000000000000000100000000000000000000000000779877a7b0d9e8603169ddbd7836e478b46247890000000000000000000000000000000000000000000000000000000000000160000000000000000000000000000000000000000000000000000000000000002000000000000000000000000046cc7764cb6a33c286c5264396ce5300292f6cdc00000000000000000000000000000000000000000000000000000000000000000000000000000000000000000000000000000000000000000000000000000001000000000000000000000000ee98ef41489d547d3f107277b149f4d30d7b1f1c00000000000000000000000000000000000000000000000000071afd498d00000000000000000000000000000000000000000000000000000000000000000044181dcf10000000000000000000000000000000000000000000000000000000000003d090000000000000000000000000000000000000000000000000000000000000000100000000000000000000000000000000000000000000000000000000",
        "nonce": "0x34",
        "chainId": "0xaa36a7"
      },
      "additionalContracts": [],
      "isFixedGasLimit": false
    }
  ],
  "receipts": [
    {
      "status": "0x1",
      "cumulativeGasUsed": "0x5e1fa0",
      "logs": [
        {
          "address": "0x779877a7b0d9e8603169ddbd7836e478b4624789",
          "topics": [
            "0x8c5be1e5ebec7d5bd14f71427d1e84f3dd0314c0f7b2291e5b200ac8c7c3b925",
            "0x00000000000000000000000046cc7764cb6a33c286c5264396ce5300292f6cdc",
            "0x0000000000000000000000000bf3de8c5d3e8a2b34d2beeb17abfcebaf363a59"
          ],
          "data": "0x0000000000000000000000000000000000000000000000000082716b62d27fe9",
          "blockHash": "0x8b758cc4432e282710187142eebee9bc71975065112678bd7cf32f5b9cb2d5b8",
          "blockNumber": "0x91f5f9",
          "blockTimestamp": "0x690b3754",
          "transactionHash": "0x4cea25e7f069ad3da6c5ec8fc6bf8aa3fd9c5dd28545dc47dbc74f9d65f06a71",
          "transactionIndex": "0x45",
          "logIndex": "0x4a",
          "removed": false
        }
      ],
      "logsBloom": "0x00000004000040000000000000000001000000000000000000000040000000000000000000000000000000000000000000000000000000000000000000200000000000000000000000000000000000000000000000000000000000000000000000000000000100000000000000000000000000000000000000000000000000000000000000000000000000000000800000000000000000000000000000000000020000000000080000000000000000000000000000000000000000000000000000000000000000000000000000000000000000000000000100000000000000000010000000000000000000000000000000000000000000000000000020000000",
      "type": "0x2",
      "transactionHash": "0x4cea25e7f069ad3da6c5ec8fc6bf8aa3fd9c5dd28545dc47dbc74f9d65f06a71",
      "transactionIndex": "0x45",
      "blockHash": "0x8b758cc4432e282710187142eebee9bc71975065112678bd7cf32f5b9cb2d5b8",
      "blockNumber": "0x91f5f9",
      "gasUsed": "0xb499",
      "effectiveGasPrice": "0xf424a",
      "from": "0x46cc7764cb6a33c286c5264396ce5300292f6cdc",
      "to": "0x779877a7b0d9e8603169ddbd7836e478b4624789",
      "contractAddress": null
    },
    {
      "status": "0x1",
      "cumulativeGasUsed": "0x5edd59",
      "logs": [
        {
          "address": "0xee98ef41489d547d3f107277b149f4d30d7b1f1c",
          "topics": [
            "0x8c5be1e5ebec7d5bd14f71427d1e84f3dd0314c0f7b2291e5b200ac8c7c3b925",
            "0x00000000000000000000000046cc7764cb6a33c286c5264396ce5300292f6cdc",
            "0x0000000000000000000000000bf3de8c5d3e8a2b34d2beeb17abfcebaf363a59"
          ],
          "data": "0x00000000000000000000000000000000000000000000000000071afd498d0000",
          "blockHash": "0x8b758cc4432e282710187142eebee9bc71975065112678bd7cf32f5b9cb2d5b8",
          "blockNumber": "0x91f5f9",
          "blockTimestamp": "0x690b3754",
          "transactionHash": "0xdf9c9acde2f63358ea6212234de88dc0797c41b51a1a567d568b875910cfb7f4",
          "transactionIndex": "0x46",
          "logIndex": "0x4b",
          "removed": false
        }
      ],
      "logsBloom": "0x00000000000040000000000000000001000000000000000000000440000000000000000000000000000000000000000000000000000000000000000000200000000000000000000000000000000000000000000000000000000000000000000000000000000100000000000000000000000000000000000000000000000000000000000000000000000000000000000000000000000000000000000000000000020000000000080000000000000002000000000000000000000000000000000000000000000000000000000000000000000000000000000000000000000000000010010000000000000000000000000000000000000000000000000020000000",
      "type": "0x2",
      "transactionHash": "0xdf9c9acde2f63358ea6212234de88dc0797c41b51a1a567d568b875910cfb7f4",
      "transactionIndex": "0x46",
      "blockHash": "0x8b758cc4432e282710187142eebee9bc71975065112678bd7cf32f5b9cb2d5b8",
      "blockNumber": "0x91f5f9",
      "gasUsed": "0xbdb9",
      "effectiveGasPrice": "0xf424a",
      "from": "0x46cc7764cb6a33c286c5264396ce5300292f6cdc",
      "to": "0xee98ef41489d547d3f107277b149f4d30d7b1f1c",
      "contractAddress": null
    },
    {
      "status": "0x1",
      "cumulativeGasUsed": "0x634093",
      "logs": [
        {
          "address": "0x779877a7b0d9e8603169ddbd7836e478b4624789",
          "topics": [
            "0xddf252ad1be2c89b69c2b068fc378daa952ba7f163c4a11628f55a4df523b3ef",
            "0x00000000000000000000000046cc7764cb6a33c286c5264396ce5300292f6cdc",
            "0x000000000000000000000000bc09627e58989ba8f1eda775e486467d2a00944f"
          ],
          "data": "0x0000000000000000000000000000000000000000000000000082716b62d27fe9",
          "blockHash": "0x8b758cc4432e282710187142eebee9bc71975065112678bd7cf32f5b9cb2d5b8",
          "blockNumber": "0x91f5f9",
          "blockTimestamp": "0x690b3754",
          "transactionHash": "0x517fbe1f91a1985cbba04024c96d5faaf49facbdaf9e048241b05b720f8d047a",
          "transactionIndex": "0x47",
          "logIndex": "0x4c",
          "removed": false
        },
        {
          "address": "0x779877a7b0d9e8603169ddbd7836e478b4624789",
          "topics": [
            "0x8c5be1e5ebec7d5bd14f71427d1e84f3dd0314c0f7b2291e5b200ac8c7c3b925",
            "0x00000000000000000000000046cc7764cb6a33c286c5264396ce5300292f6cdc",
            "0x0000000000000000000000000bf3de8c5d3e8a2b34d2beeb17abfcebaf363a59"
          ],
          "data": "0x0000000000000000000000000000000000000000000000000000000000000000",
          "blockHash": "0x8b758cc4432e282710187142eebee9bc71975065112678bd7cf32f5b9cb2d5b8",
          "blockNumber": "0x91f5f9",
          "blockTimestamp": "0x690b3754",
          "transactionHash": "0x517fbe1f91a1985cbba04024c96d5faaf49facbdaf9e048241b05b720f8d047a",
          "transactionIndex": "0x47",
          "logIndex": "0x4d",
          "removed": false
        },
        {
          "address": "0xee98ef41489d547d3f107277b149f4d30d7b1f1c",
          "topics": [
            "0xddf252ad1be2c89b69c2b068fc378daa952ba7f163c4a11628f55a4df523b3ef",
            "0x0000000000000000000000000000000000000000000000000000000000000000",
            "0x00000000000000000000000046cc7764cb6a33c286c5264396ce5300292f6cdc"
          ],
          "data": "0x00000000000000000000000000000000000000000000000000000009c7652400",
          "blockHash": "0x8b758cc4432e282710187142eebee9bc71975065112678bd7cf32f5b9cb2d5b8",
          "blockNumber": "0x91f5f9",
          "blockTimestamp": "0x690b3754",
          "transactionHash": "0x517fbe1f91a1985cbba04024c96d5faaf49facbdaf9e048241b05b720f8d047a",
          "transactionIndex": "0x47",
          "logIndex": "0x4e",
          "removed": false
        },
        {
          "address": "0xee98ef41489d547d3f107277b149f4d30d7b1f1c",
          "topics": [
            "0x2ee35aad2e33f2a57a13f55b273b9ab5bf3cdd683fe413a7d9e22bcb8b3f67dd",
            "0x00000000000000000000000046cc7764cb6a33c286c5264396ce5300292f6cdc"
          ],
          "data": "0x00000000000000000000000000000000000000000000000000000009c7652400",
          "blockHash": "0x8b758cc4432e282710187142eebee9bc71975065112678bd7cf32f5b9cb2d5b8",
          "blockNumber": "0x91f5f9",
          "blockTimestamp": "0x690b3754",
          "transactionHash": "0x517fbe1f91a1985cbba04024c96d5faaf49facbdaf9e048241b05b720f8d047a",
          "transactionIndex": "0x47",
          "logIndex": "0x4f",
          "removed": false
        },
        {
          "address": "0xee98ef41489d547d3f107277b149f4d30d7b1f1c",
          "topics": [
            "0xddf252ad1be2c89b69c2b068fc378daa952ba7f163c4a11628f55a4df523b3ef",
            "0x0000000000000000000000000000000000000000000000000000000000000000",
            "0x0000000000000000000000006e279d873307251e54361bbcde2463f156082002"
          ],
          "data": "0x0000000000000000000000000000000000000000000000000000000000000000",
          "blockHash": "0x8b758cc4432e282710187142eebee9bc71975065112678bd7cf32f5b9cb2d5b8",
          "blockNumber": "0x91f5f9",
          "blockTimestamp": "0x690b3754",
          "transactionHash": "0x517fbe1f91a1985cbba04024c96d5faaf49facbdaf9e048241b05b720f8d047a",
          "transactionIndex": "0x47",
          "logIndex": "0x50",
          "removed": false
        },
        {
          "address": "0xee98ef41489d547d3f107277b149f4d30d7b1f1c",
          "topics": [
            "0x2ee35aad2e33f2a57a13f55b273b9ab5bf3cdd683fe413a7d9e22bcb8b3f67dd",
            "0x0000000000000000000000006e279d873307251e54361bbcde2463f156082002"
          ],
          "data": "0x0000000000000000000000000000000000000000000000000000000000000000",
          "blockHash": "0x8b758cc4432e282710187142eebee9bc71975065112678bd7cf32f5b9cb2d5b8",
          "blockNumber": "0x91f5f9",
          "blockTimestamp": "0x690b3754",
          "transactionHash": "0x517fbe1f91a1985cbba04024c96d5faaf49facbdaf9e048241b05b720f8d047a",
          "transactionIndex": "0x47",
          "logIndex": "0x51",
          "removed": false
        },
        {
          "address": "0xee98ef41489d547d3f107277b149f4d30d7b1f1c",
          "topics": [
            "0xddf252ad1be2c89b69c2b068fc378daa952ba7f163c4a11628f55a4df523b3ef",
            "0x00000000000000000000000046cc7764cb6a33c286c5264396ce5300292f6cdc",
            "0x0000000000000000000000006e279d873307251e54361bbcde2463f156082002"
          ],
          "data": "0x00000000000000000000000000000000000000000000000000071afd498d0000",
          "blockHash": "0x8b758cc4432e282710187142eebee9bc71975065112678bd7cf32f5b9cb2d5b8",
          "blockNumber": "0x91f5f9",
          "blockTimestamp": "0x690b3754",
          "transactionHash": "0x517fbe1f91a1985cbba04024c96d5faaf49facbdaf9e048241b05b720f8d047a",
          "transactionIndex": "0x47",
          "logIndex": "0x52",
          "removed": false
        },
        {
          "address": "0xee98ef41489d547d3f107277b149f4d30d7b1f1c",
          "topics": [
            "0xddf252ad1be2c89b69c2b068fc378daa952ba7f163c4a11628f55a4df523b3ef",
            "0x0000000000000000000000000000000000000000000000000000000000000000",
            "0x0000000000000000000000006e279d873307251e54361bbcde2463f156082002"
          ],
          "data": "0x0000000000000000000000000000000000000000000000000000000000000000",
          "blockHash": "0x8b758cc4432e282710187142eebee9bc71975065112678bd7cf32f5b9cb2d5b8",
          "blockNumber": "0x91f5f9",
          "blockTimestamp": "0x690b3754",
          "transactionHash": "0x517fbe1f91a1985cbba04024c96d5faaf49facbdaf9e048241b05b720f8d047a",
          "transactionIndex": "0x47",
          "logIndex": "0x53",
          "removed": false
        },
        {
          "address": "0xee98ef41489d547d3f107277b149f4d30d7b1f1c",
          "topics": [
            "0x2ee35aad2e33f2a57a13f55b273b9ab5bf3cdd683fe413a7d9e22bcb8b3f67dd",
            "0x0000000000000000000000006e279d873307251e54361bbcde2463f156082002"
          ],
          "data": "0x0000000000000000000000000000000000000000000000000000000000000000",
          "blockHash": "0x8b758cc4432e282710187142eebee9bc71975065112678bd7cf32f5b9cb2d5b8",
          "blockNumber": "0x91f5f9",
          "blockTimestamp": "0x690b3754",
          "transactionHash": "0x517fbe1f91a1985cbba04024c96d5faaf49facbdaf9e048241b05b720f8d047a",
          "transactionIndex": "0x47",
          "logIndex": "0x54",
          "removed": false
        },
        {
          "address": "0xee98ef41489d547d3f107277b149f4d30d7b1f1c",
          "topics": [
            "0xddf252ad1be2c89b69c2b068fc378daa952ba7f163c4a11628f55a4df523b3ef",
            "0x0000000000000000000000006e279d873307251e54361bbcde2463f156082002",
            "0x0000000000000000000000000000000000000000000000000000000000000000"
          ],
          "data": "0x00000000000000000000000000000000000000000000000000071afd498d0000",
          "blockHash": "0x8b758cc4432e282710187142eebee9bc71975065112678bd7cf32f5b9cb2d5b8",
          "blockNumber": "0x91f5f9",
          "blockTimestamp": "0x690b3754",
          "transactionHash": "0x517fbe1f91a1985cbba04024c96d5faaf49facbdaf9e048241b05b720f8d047a",
          "transactionIndex": "0x47",
          "logIndex": "0x55",
          "removed": false
        },
        {
          "address": "0xbc09627e58989ba8f1eda775e486467d2a00944f",
          "topics": [
            "0xd0c3c799bf9e2639de44391e7f524d229b2b55f5b1ea94b2bf7da42f7243dddd"
          ],
          "data": "0x0000000000000000000000000000000000000000000000000000000000000020000000000000000000000000000000000000000000000000de41ba4fc9d91ad900000000000000000000000046cc7764cb6a33c286c5264396ce5300292f6cdc00000000000000000000000046cc7764cb6a33c286c5264396ce5300292f6cdc0000000000000000000000000000000000000000000000000000000000005200000000000000000000000000000000000000000000000000000000000003d09000000000000000000000000000000000000000000000000000000000000000000000000000000000000000000000000000000000000000000000000000000000000000000000000000000000779877a7b0d9e8603169ddbd7836e478b46247890000000000000000000000000000000000000000000000000082716b62d27fe900000000000000000000000000000000000000000000000000000000000001a000000000000000000000000000000000000000000000000000000000000001c00000000000000000000000000000000000000000000000000000000000000220549c540b250f7554ef3b8d7af694fec7f0f54fc5fdd9dbdeed6b4291bf87986a00000000000000000000000000000000000000000000000000000000000000000000000000000000000000000000000000000000000000000000000000000001000000000000000000000000ee98ef41489d547d3f107277b149f4d30d7b1f1c00000000000000000000000000000000000000000000000000071afd498d00000000000000000000000000000000000000000000000000000000000000000001000000000000000000000000000000000000000000000000000000000000002000000000000000000000000000000000000000000000000000000000000001600000000000000000000000000000000000000000000000000000000000000020000000000000000000000000000000000000000000000000000000000000008000000000000000000000000000000000000000000000000000000000000000c000000000000000000000000000000000000000000000000000000000000001000000000000000000000000000000000000000000000000000000000000015f9000000000000000000000000000000000000000000000000000000000000000200000000000000000000000006e279d873307251e54361bbcde2463f1560820020000000000000000000000000000000000000000000000000000000000000020000000000000000000000000288d991a64ed02171d0bec0dc788ad76421e116900000000000000000000000000000000000000000000000000000000000000200000000000000000000000000000000000000000000000000000000ba43b7400",
          "blockHash": "0x8b758cc4432e282710187142eebee9bc71975065112678bd7cf32f5b9cb2d5b8",
          "blockNumber": "0x91f5f9",
          "blockTimestamp": "0x690b3754",
          "transactionHash": "0x517fbe1f91a1985cbba04024c96d5faaf49facbdaf9e048241b05b720f8d047a",
          "transactionIndex": "0x47",
          "logIndex": "0x56",
          "removed": false
        }
      ],
      "logsBloom": "0x00000004080040000000000000008003000000000000000000000440000000000000000000000000000000000000000000000000000000000000000000200400000100000000000000000008000000000000000000000000000000000000000000020000020100000000000000000800000000000000000000000010000000000000000000200000000000000000800000000000000000000000000000000000020000000000080400400000020002000000000000000000000100000000000000000002000000000000000002010000000000000000000100000000000020000010010000000000000000000000000004000000000000040000000020000000",
      "type": "0x2",
      "transactionHash": "0x517fbe1f91a1985cbba04024c96d5faaf49facbdaf9e048241b05b720f8d047a",
      "transactionIndex": "0x47",
      "blockHash": "0x8b758cc4432e282710187142eebee9bc71975065112678bd7cf32f5b9cb2d5b8",
      "blockNumber": "0x91f5f9",
      "gasUsed": "0x4633a",
      "effectiveGasPrice": "0xf424a",
      "from": "0x46cc7764cb6a33c286c5264396ce5300292f6cdc",
      "to": "0x0bf3de8c5d3e8a2b34d2beeb17abfcebaf363a59",
      "contractAddress": null
    }
  ],
  "libraries": [],
  "pending": [],
  "returns": {},
  "timestamp": 1762342740962,
  "chain": 11155111,
  "commit": "6ddff08"
}