{
  "transactions": [
    {
      "hash": "0xd06ddd2cde1100402a69dcc4e659ff541ec0490883c5c6607b0b4eba292037f5",
      "transactionType": "CALL",
      "contractName": null,
      "contractAddress": "0xea51ad987067779da3e789827d3c59058de58d92",
      "function": "applyChainUpdates((uint64,bool,bytes,bytes,(bool,uint128,uint128),(bool,uint128,uint128))[])",
      "arguments": [
        "[(3478487238524512106, true, 0x000000000000000000000000ea51ad987067779da3e789827d3c59058de58d92, 0x0000000000000000000000008180881c93459baa6f3fcfe0074350e085231c42, (false, 0, 0), (false, 0, 0))]"
      ],
      "transaction": {
        "from": "0x46cc7764cb6a33c286c5264396ce5300292f6cdc",
        "to": "0xea51ad987067779da3e789827d3c59058de58d92",
        "gas": "0x553a3",
        "value": "0x0",
        "input": "0xdb6327dc000000000000000000000000000000000000000000000000000000000000002000000000000000000000000000000000000000000000000000000000000000010000000000000000000000000000000000000000000000000000000000000020000000000000000000000000000000000000000000000000304611b6affba76a0000000000000000000000000000000000000000000000000000000000000001000000000000000000000000000000000000000000000000000000000000014000000000000000000000000000000000000000000000000000000000000001800000000000000000000000000000000000000000000000000000000000000000000000000000000000000000000000000000000000000000000000000000000000000000000000000000000000000000000000000000000000000000000000000000000000000000000000000000000000000000000000000000000000000000000000000000000000000000000000000000000000000000000000000000000000000000000000000000000000000000000000000000000000000000000000000000000000000000000000000000000000000000000000000000000000000020000000000000000000000000ea51ad987067779da3e789827d3c59058de58d9200000000000000000000000000000000000000000000000000000000000000200000000000000000000000008180881c93459baa6f3fcfe0074350e085231c42",
        "nonce": "0x11",
        "chainId": "0xaa36a7"
      },
      "additionalContracts": [],
      "isFixedGasLimit": false
    }
  ],
  "receipts": [
    {
      "status": "0x1",
      "cumulativeGasUsed": "0x8c2595",
      "logs": [
        {
          "address": "0xea51ad987067779da3e789827d3c59058de58d92",
          "topics": [
            "0x8d340f17e19058004c20453540862a9c62778504476f6756755cb33bcd6c38c2"
          ],
          "data": "0x000000000000000000000000000000000000000000000000304611b6affba76a000000000000000000000000000000000000000000000000000000000000010000000000000000000000000000000000000000000000000000000000000000000000000000000000000000000000000000000000000000000000000000000000000000000000000000000000000000000000000000000000000000000000000000000000000000000000000000000000000000000000000000000000000000000000000000000000000000000000000000000000000000000000000000000000000000000000000000000000000000000000000000000000000000000000000000000000000000000000000000000000000000000000000000000000000000200000000000000000000000008180881c93459baa6f3fcfe0074350e085231c42",
          "blockHash": "0x315e21258474067b88875bfd79fa0f6f8311e12b6451aef249e46c4a8226dd36",
          "blockNumber": "0x914db5",
          "blockTimestamp": "0x69034fd4",
          "transactionHash": "0xd06ddd2cde1100402a69dcc4e659ff541ec0490883c5c6607b0b4eba292037f5",
          "transactionIndex": "0x36",
          "logIndex": "0x56",
          "removed": false
        }
      ],
      "logsBloom": "0x00000000000000400000000000000000000000000000000000000000000000000000000000000000000000000000000000000000000000000004000400000000000000000000000000000000000000000000000000000000000000000000000000000000000000000000000000000000000000000000000000000000001000000000000000000000000000000000000000000000000000000000000000000000000000000000000000000000000000000000000000000000000000000000004000000000000000000000000000000000000000000000000000000000000000000000000000000000000000000000000000000000000000000100000000000000",
      "type": "0x2",
      "transactionHash": "0xd06ddd2cde1100402a69dcc4e659ff541ec0490883c5c6607b0b4eba292037f5",
      "transactionIndex": "0x36",
      "blockHash": "0x315e21258474067b88875bfd79fa0f6f8311e12b6451aef249e46c4a8226dd36",
      "blockNumber": "0x914db5",
      "gasUsed": "0x3db40",
      "effectiveGasPrice": "0xfa90c",
      "from": "0x46cc7764cb6a33c286c5264396ce5300292f6cdc",
      "to": "0xea51ad987067779da3e789827d3c59058de58d92",
      "contractAddress": null
    }
  ],
  "libraries": [],
  "pending": [],
  "returns": {},
  "timestamp": 1761824725,
  "chain": 11155111,
  "commit": "6ddff08"
}