{
  "transactions": [
    {
      "hash": "0x25e5bd6e6f746d990beaa3c21fa55bbbba7f692794115be080a782d34db53204",
      "transactionType": "CALL",
      "contractName": null,
      "contractAddress": "0x861ebe9d8a29e4f8740079119f6eb60a8a1b791f",
      "function": "applyChainUpdates((uint64,bool,bytes,bytes,(bool,uint128,uint128),(bool,uint128,uint128))[])",
      "arguments": [
        "[(3478487238524512106, true, 0x000000000000000000000000861ebe9d8a29e4f8740079119f6eb60a8a1b791f, 0x000000000000000000000000cb126020376bf6a97083167446afc6ec68c0381d, (false, 0, 0), (false, 0, 0))]"
      ],
      "transaction": {
        "from": "0x46cc7764cb6a33c286c5264396ce5300292f6cdc",
        "to": "0x861ebe9d8a29e4f8740079119f6eb60a8a1b791f",
        "gas": "0x55392",
        "value": "0x0",
        "input": "0xdb6327dc000000000000000000000000000000000000000000000000000000000000002000000000000000000000000000000000000000000000000000000000000000010000000000000000000000000000000000000000000000000000000000000020000000000000000000000000000000000000000000000000304611b6affba76a0000000000000000000000000000000000000000000000000000000000000001000000000000000000000000000000000000000000000000000000000000014000000000000000000000000000000000000000000000000000000000000001800000000000000000000000000000000000000000000000000000000000000000000000000000000000000000000000000000000000000000000000000000000000000000000000000000000000000000000000000000000000000000000000000000000000000000000000000000000000000000000000000000000000000000000000000000000000000000000000000000000000000000000000000000000000000000000000000000000000000000000000000000000000000000000000000000000000000000000000000000000000000000000000000000000000000020000000000000000000000000861ebe9d8a29e4f8740079119f6eb60a8a1b791f0000000000000000000000000000000000000000000000000000000000000020000000000000000000000000cb126020376bf6a97083167446afc6ec68c0381d",
        "nonce": "0x5",
        "chainId": "0xaa36a7"
      },
      "additionalContracts": [],
      "isFixedGasLimit": false
    }
  ],
  "receipts": [
    {
      "status": "0x1",
      "cumulativeGasUsed": "0x10ed508",
      "logs": [
        {
          "address": "0x861ebe9d8a29e4f8740079119f6eb60a8a1b791f",
          "topics": [
            "0x8d340f17e19058004c20453540862a9c62778504476f6756755cb33bcd6c38c2"
          ],
          "data": "0x000000000000000000000000000000000000000000000000304611b6affba76a00000000000000000000000000000000000000000000000000000000000001000000000000000000000000000000000000000000000000000000000000000000000000000000000000000000000000000000000000000000000000000000000000000000000000000000000000000000000000000000000000000000000000000000000000000000000000000000000000000000000000000000000000000000000000000000000000000000000000000000000000000000000000000000000000000000000000000000000000000000000000000000000000000000000000000000000000000000000000000000000000000000000000000000000000000020000000000000000000000000cb126020376bf6a97083167446afc6ec68c0381d",
          "blockHash": "0x47a1cadddc313e7b9d53eb95958a95bab3d339ec0034b129984493b2a01d5ad6",
          "blockNumber": "0x914be8",
          "blockTimestamp": "0x69033a2c",
          "transactionHash": "0x25e5bd6e6f746d990beaa3c21fa55bbbba7f692794115be080a782d34db53204",
          "transactionIndex": "0x3c",
          "logIndex": "0x40",
          "removed": false
        }
      ],
      "logsBloom": "0x00000000000000400000000000000000000000000000000000000000000000000000000000000000000000000000000000000000000000000004000000000000000000000000000000000000000000000000000000000000000000000000000000000000000000000000000000000000000000000000000000000000000000000000000000000000000000000000000000000000000000000000400000000000000000000000000000000000000000000000000000000100000000000000000000000000000000000000000000000000000000000000000000000080000000000000000000000000000000000000000000000000000000000100000000000000",
      "type": "0x2",
      "transactionHash": "0x25e5bd6e6f746d990beaa3c21fa55bbbba7f692794115be080a782d34db53204",
      "transactionIndex": "0x3c",
      "blockHash": "0x47a1cadddc313e7b9d53eb95958a95bab3d339ec0034b129984493b2a01d5ad6",
      "blockNumber": "0x914be8",
      "gasUsed": "0x3db34",
      "effectiveGasPrice": "0xf4249",
      "from": "0x46cc7764cb6a33c286c5264396ce5300292f6cdc",
      "to": "0x861ebe9d8a29e4f8740079119f6eb60a8a1b791f",
      "contractAddress": null
    }
  ],
  "libraries": [],
  "pending": [],
  "returns": {},
  "timestamp": 1761819181,
  "chain": 11155111,
  "commit": "6ddff08"
}