{
  "transactions": [
    {
      "hash": "0x8439069f5e8a368b307ba150524430d7f53db4afdc7fa1715167a1b2026b087f",
      "transactionType": "CALL",
      "contractName": null,
      "contractAddress": "0x197babc40fc361e9c324e9e690c016a609ac09d4",
      "function": "applyChainUpdates((uint64,bool,bytes,bytes,(bool,uint128,uint128),(bool,uint128,uint128))[])",
      "arguments": [
        "[(3478487238524512106, true, 0x000000000000000000000000197babc40fc361e9c324e9e690c016a609ac09d4, 0x00000000000000000000000016c632bafa9b3ce39bdcddb00c3d486741685425, (false, 0, 0), (false, 0, 0))]"
      ],
      "transaction": {
        "from": "0xf39fd6e51aad88f6f4ce6ab8827279cfffb92266",
        "to": "0x197babc40fc361e9c324e9e690c016a609ac09d4",
        "gas": "0x525dc",
        "value": "0x0",
        "input": "0xdb6327dc000000000000000000000000000000000000000000000000000000000000002000000000000000000000000000000000000000000000000000000000000000010000000000000000000000000000000000000000000000000000000000000020000000000000000000000000000000000000000000000000304611b6affba76a0000000000000000000000000000000000000000000000000000000000000001000000000000000000000000000000000000000000000000000000000000014000000000000000000000000000000000000000000000000000000000000001800000000000000000000000000000000000000000000000000000000000000000000000000000000000000000000000000000000000000000000000000000000000000000000000000000000000000000000000000000000000000000000000000000000000000000000000000000000000000000000000000000000000000000000000000000000000000000000000000000000000000000000000000000000000000000000000000000000000000000000000000000000000000000000000000000000000000000000000000000000000000000000000000000000000000020000000000000000000000000197babc40fc361e9c324e9e690c016a609ac09d4000000000000000000000000000000000000000000000000000000000000002000000000000000000000000016c632bafa9b3ce39bdcddb00c3d486741685425",
        "nonce": "0xb6e9",
        "chainId": "0xaa36a7"
      },
      "additionalContracts": [],
      "isFixedGasLimit": false
    }
  ],
  "receipts": [
    {
      "status": "0x1",
      "cumulativeGasUsed": "0x3ba1c",
      "logs": [
        {
          "address": "0x197babc40fc361e9c324e9e690c016a609ac09d4",
          "topics": [
            "0x8d340f17e19058004c20453540862a9c62778504476f6756755cb33bcd6c38c2"
          ],
          "data": "0x000000000000000000000000000000000000000000000000304611b6affba76a0000000000000000000000000000000000000000000000000000000000000100000000000000000000000000000000000000000000000000000000000000000000000000000000000000000000000000000000000000000000000000000000000000000000000000000000000000000000000000000000000000000000000000000000000000000000000000000000000000000000000000000000000000000000000000000000000000000000000000000000000000000000000000000000000000000000000000000000000000000000000000000000000000000000000000000000000000000000000000000000000000000000000000000000000000002000000000000000000000000016c632bafa9b3ce39bdcddb00c3d486741685425",
          "blockHash": "0xad01d50b3f72a0fe820fada402177db626fe28eb3b4ed373919e31bb72d87c5a",
          "blockNumber": "0x911679",
          "blockTimestamp": "0x6900b671",
          "transactionHash": "0x8439069f5e8a368b307ba150524430d7f53db4afdc7fa1715167a1b2026b087f",
          "transactionIndex": "0x0",
          "logIndex": "0x0",
          "removed": false
        }
      ],
      "logsBloom": "0x00000000000000400000000000000000000000000000000000000000000000000000000000000000000000000000000000000000000000000004000000000000000000000000000000000000000000000000000000000000000000000000000000000000800000000000000000000000000000000000000000000000000000000000000000000000000000008000000000000000000000000000000000000000000000000000000000000000000000000000000000000000000000000000000000000000000000000000000000000000000000000000000000000000000000000010000000000000000000000000000000000000000000000100000000000000",
      "type": "0x2",
      "transactionHash": "0x8439069f5e8a368b307ba150524430d7f53db4afdc7fa1715167a1b2026b087f",
      "transactionIndex": "0x0",
      "blockHash": "0xad01d50b3f72a0fe820fada402177db626fe28eb3b4ed373919e31bb72d87c5a",
      "blockNumber": "0x911679",
      "gasUsed": "0x3ba1c",
      "effectiveGasPrice": "0xf4248",
      "blobGasPrice": "0xb4c",
      "from": "0xf39fd6e51aad88f6f4ce6ab8827279cfffb92266",
      "to": "0x197babc40fc361e9c324e9e690c016a609ac09d4",
      "contractAddress": null
    }
  ],
  "libraries": [],
  "pending": [],
  "returns": {},
  "timestamp": 1761654391,
  "chain": 11155111,
  "commit": "ea2fd01"
}