{
  "transactions": [
    {
      "hash": "0xa69a7f717d2b37f17da240eef40866870c6fea7892fa0436b01ed3cfdc328196",
      "transactionType": "CALL",
      "contractName": null,
      "contractAddress": "0x6e279d873307251e54361bbcde2463f156082002",
      "function": "applyChainUpdates((uint64,bool,bytes,bytes,(bool,uint128,uint128),(bool,uint128,uint128))[])",
      "arguments": [
        "[(3478487238524512106, true, 0x000000000000000000000000a589fee47fe9f28390b6fc68dd28bd0a96591416, 0x000000000000000000000000288d991a64ed02171d0bec0dc788ad76421e1169, (false, 0, 0), (false, 0, 0))]"
      ],
      "transaction": {
        "from": "0x46cc7764cb6a33c286c5264396ce5300292f6cdc",
        "to": "0x6e279d873307251e54361bbcde2463f156082002",
        "gas": "0x553a3",
        "value": "0x0",
        "input": "0xdb6327dc000000000000000000000000000000000000000000000000000000000000002000000000000000000000000000000000000000000000000000000000000000010000000000000000000000000000000000000000000000000000000000000020000000000000000000000000000000000000000000000000304611b6affba76a0000000000000000000000000000000000000000000000000000000000000001000000000000000000000000000000000000000000000000000000000000014000000000000000000000000000000000000000000000000000000000000001800000000000000000000000000000000000000000000000000000000000000000000000000000000000000000000000000000000000000000000000000000000000000000000000000000000000000000000000000000000000000000000000000000000000000000000000000000000000000000000000000000000000000000000000000000000000000000000000000000000000000000000000000000000000000000000000000000000000000000000000000000000000000000000000000000000000000000000000000000000000000000000000000000000000000020000000000000000000000000a589fee47fe9f28390b6fc68dd28bd0a965914160000000000000000000000000000000000000000000000000000000000000020000000000000000000000000288d991a64ed02171d0bec0dc788ad76421e1169",
        "nonce": "0x2f",
        "chainId": "0xaa36a7"
      },
      "additionalContracts": [],
      "isFixedGasLimit": false
    }
  ],
  "receipts": [
    {
      "status": "0x1",
      "cumulativeGasUsed": "0x134f0b1",
      "logs": [
        {
          "address": "0x6e279d873307251e54361bbcde2463f156082002",
          "topics": [
            "0x8d340f17e19058004c20453540862a9c62778504476f6756755cb33bcd6c38c2"
          ],
          "data": "0x000000000000000000000000000000000000000000000000304611b6affba76a00000000000000000000000000000000000000000000000000000000000001000000000000000000000000000000000000000000000000000000000000000000000000000000000000000000000000000000000000000000000000000000000000000000000000000000000000000000000000000000000000000000000000000000000000000000000000000000000000000000000000000000000000000000000000000000000000000000000000000000000000000000000000000000000000000000000000000000000000000000000000000000000000000000000000000000000000000000000000000000000000000000000000000000000000000020000000000000000000000000288d991a64ed02171d0bec0dc788ad76421e1169",
          "blockHash": "0x0a1d45c804956e72d72ab55db1b20ec9ab198948f37ab9fe23b8fa12d680d3a4",
          "blockNumber": "0x91f5af",
          "blockTimestamp": "0x690b33dc",
          "transactionHash": "0xa69a7f717d2b37f17da240eef40866870c6fea7892fa0436b01ed3cfdc328196",
          "transactionIndex": "0x60",
          "logIndex": "0x66",
          "removed": false
        }
      ],
      "logsBloom": "0x00000000000000400000000000000000000000000000000000000000000000000000000000000000000000000000000000000000000000000004000000000000000200000000000000000000000000000000000000000000000000000000000000000000000000000000000000000000000000000000000000000000000000000000000000000000000000000000000000000000000000000000000000200000000000000000000000000000000000000000000000000000200000000000000000000000000000000000000000000000000000000000000000000000000000000000000000000000000000000000000000000000000000000100000000000000",
      "type": "0x2",
      "transactionHash": "0xa69a7f717d2b37f17da240eef40866870c6fea7892fa0436b01ed3cfdc328196",
      "transactionIndex": "0x60",
      "blockHash": "0x0a1d45c804956e72d72ab55db1b20ec9ab198948f37ab9fe23b8fa12d680d3a4",
      "blockNumber": "0x91f5af",
      "gasUsed": "0x3db40",
      "effectiveGasPrice": "0xf4249",
      "from": "0x46cc7764cb6a33c286c5264396ce5300292f6cdc",
      "to": "0x6e279d873307251e54361bbcde2463f156082002",
      "contractAddress": null
    }
  ],
  "libraries": [],
  "pending": [],
  "returns": {},
  "timestamp": 1762341854619,
  "chain": 11155111,
  "commit": "6ddff08"
}